:020000040000FA
:2000000000500020A50F00009D0F0000850F0000A10F0000A10F0000A10F0000000000006C
:20002000000000000000000000000000A10F0000A10F000000000000A10F0000A10F000000
:20004000A12E0000A10F000081350000A10F000061260000852B0000A10F0000A10F000024
:20006000A10F0000CD350000A10F0000A10F0000A10F0000A10F0000A10F0000A10F0000AE
:20008000A10F0000A10F0000A10F0000A10F0000A10F0000A10F0000A10F0000A10F0000E0
:2000A000A10F0000A10F0000A10F0000A10F0000A10F0000A10F0000A10F0000A10F0000C0
:2000C000A10F00008D440000294B1B689B0702D44FF000407047F0B5452183B0002002F0AA
:2000E00027F90DF106010222012001F07BF838B901A8022101F0A0F84FF0004003B0F0BD0D
:200100000DF106010222002001F06CF80028EFD0BDF806301C0A44EA0324A4B2200BADF8CE
:20012000044007F009FE07F0BBF90646C4F30B000F4607F011FE0CA3D3E9002304460D463E
:200140003046394607F072FE02460B462046294607F06CFE08F01AF9064908F075FA08F0BB
:20016000C3FB03B0F0BD00BF7B14AE47E17A843F5C0700200000C84208B51F4B1B68032B9B
:2001800033D1431E012B30D81C4A1D4B012812881B8812D0184607F0CFFD0022194B07F012
:2001A00045FE0022184B07F041FE08F0EFF8174908F04AFA08F098FB08BD104607F0BCFD70
:2001C0000022104B07F032FE09A3D3E9002307F02DFE00220E4B07F071FC08F0D7F80B49D4
:2001E00008F032FA08F080FB08BD4FF0004008BD0000000000A0644064070020340F00202D
:20020000320F00200000F03E000059400000C8420000444000000000F8B5614B1B68FBB1A0
:200220000546062200215F4808F082FD15F0380740D16A0714D002F085F95B4C6FF00906DD
:20024000206005E002F07EF92368F31AC34203D501F0FCFB0028F5D0544B1B78DB0703D49B
:200260004FF000473846F8BD4E4C6821012002F05FF821460622432000F0B4FF064600282F
:2002800065D0002126786278A37866702270E6782279E37063790846A6706271237102F028
:2002A00047F8042D40D0022D5CD0012DDAD1B4F904003BE002F046F93B4C6FF00906206018
:2002C00005E002F03FF92368F31AC34203D501F0BDFB0028F5D0354B1B78D907C0D5314CFF
:2002E0006821012002F024F8214606223B2000F079FF00210646084602F01AF8002E46D0F1
:2003000022786378A078E1786270237022796379202DE070A1706271237126D0102D30D0D3
:20032000082D31D000279DE7B4F9000007F014FD19A3D3E9002307F0A3FE08F027F81C4978
:2003400008F082F908F0D0FA07463846F8BD2046062100F071FF3146304601F0E9FF4FF0F6
:2003600000477FE7B4F90200E0E7B4F9000001F097FA0F4908F068F908F0B6FA0746384607
:20038000F8BDB4F90200F2E7B4F90400EFE72046062100F051FF63E7000000000060604082
:2003A000B40700208C0700205C0F0020410F00200000C842000000002DE9F04F23F00045FD
:2003C00055EA020493B00DD0794E21F00044B4420F4682460FDD04F1404404F5801454EA59
:2003E0000A035BD10023734CCDE90034DDE9000113B0BDE8F08F984694464ED0B542EADCB7
:200400006B4EB54266D0002F8B468146CDE9022364DB0026BCF1000F0ED1654B9D4246D0AF
:20042000644B9D4200F09780B8F1804F00F0B280614B984500F0D2834846594607F094FA0D
:20044000CDE90001BAF1000F06D1002C60D0594B27F040429A425BD0FF0F013F56EA07031C
:2004600000F08280554B9D4240F3B08003F104739D4240F34E84524B9C4240F38280B8F100
:20048000000F40F3828048A3D3E900231046194607F0CCFCCDE90001A8E728B1494813B067
:2004A000BDE8F04F07F06CBAA542F7DCA8E704F1404303F5801353EA0A0393D0404B9C42D9
:2004C00040F39683B8F1000F5FDBDDE90234CDE900348BE7BCF1000F95D07CE73A4B9D429E
:2004E00037DCA3F154739D4293DD2B15A3F2FF33142B40F3ED83C3F134032CFA03F202FA54
:2005000003F3634585D102F00102C2F1020681E7B8F1000F07DADDE900230020254907F0C8
:20052000AFFDCDE90001002FBFF660AF04F1404404F5801454EA060300F04984012E7FF4B9
:2005400055AFDDE90045224605F10043CDE900234CE702265EE7B8F1000FC0F255834846A2
:200560005946CDE9000141E74A4648465B46594607F0A4FA02460B4607F082FDCDE9000144
:2005800034E7B8F1000FFFF67EAF00230024CDE900342BE74A4648465B46594607F046FC8C
:2005A000CDE9000122E700BF9C7500883CE4377E0000F07F0000F03F0000E03F0000E04170
:2005C000FFFFEF3F148E0000FFFF3F43B4F5801F80F29C83DDE900010022D14B07F026FCD6
:2005E0006FF0340C0C46CDE900012315CD4AC4F31304A3F2FF3344F07F5503EB0C01944296
:200600000D9145F4401540F37383C74B9C4240F30084002300240022CDE90A34CDE9103487
:200620000024C24B0131CDE906230D91A5F58015DDE906ABDDE9000152465B4629468046FF
:2006400007F03CFA5246CDE908015B4640462946CDE906AB07F034FA02460B460020B3493F
:2006600007F00EFD0A4601461346CDE90E120246DDE9080107F0DAFB0A46834694460023B9
:2006800001460020CDE900BC00936B1043F0005303F50023CDE90412DDE900AB1919A94674
:2006A00004460D4602460B465046594607F0BEFB02460B46DDE9080107F000FADDE90623D7
:2006C000CDE908012046294607F0F8F902460B464046494607F0F2F952465B4607F0A6FB3D
:2006E00002460B46DDE9080107F0E8F9DDE90E2307F09CFBDDE90445CDE9060122462B4690
:200700002046294607F092FB73A3D3E9002304460D4607F08BFB72A3D3E9002307F0D0F9BD
:2007200022462B4607F082FB6FA3D3E9002307F0C7F922462B4607F079FB6DA3D3E9002391
:2007400007F0BEF922462B4607F070FB6AA3D3E9002307F0B5F922462B4607F067FB68A3E2
:20076000D3E9002307F0ACF92246804689462B462046294607F05AFB02460B4640464946C1
:2007800007F054FB04460D46DDE9040152465B4607F096F9DDE9062307F048FB22462B46EA
:2007A00007F08EF95246804689465B465046594607F03CFB00225E4BCDE9080107F080F990
:2007C00042464B4607F07CF900980D4604462B4622465046594607F029FB002282468B467B
:2007E000534B2046294607F069F9DDE9082307F065F902460B464046494607F05FF9DDE924
:20080000042307F013FB224680468946DDE906012B4607F00BFB02460B464046494607F0CF
:200820004FF98046894602460B465046594607F047F935A3D3E9002300980D46044607F0F3
:20084000F5FA5246CDE904015B462046294607F035F902460B464046494607F02FF92CA31F
:20086000D3E9002307F0E2FA2BA3D3E90023804689462046294607F0D9FA02460B464046C6
:20088000494607F01DF9DDE9102307F019F980460D98894607F060FA82468B46DDE90401CB
:2008A00042464B4607F00CF9DDE90A2307F008F952465B4607F004F9009852465B460446F0
:2008C0000D4607F0FBF8DDE90A2307F0F7F8DDE904232FE0AFF30080EF4E454A287ECA3F69
:2008E00065DBC9934A86CD3F01411DA96074D13F4D268F515555D53FFFAB6FDBB66DDB3F52
:20090000033333333333E33F000000E009C7EE3FFD033ADC09C7EE3FF5015B14E02F3EBE53
:20092000000040438E98030079B60B000000F03F0000084007F0C2F80B46024649464046FB
:2009400007F0BCF80022013E56EA070314BFDA4BDA4B8B46CDE90423DDE9021200230E4625
:200960001746CDE900670093DDE9006782463B4608461146324607F0A1F822462B4607F077
:2009800055FADDE90223804689465046594607F04DFA02460B464046494607F091F8804621
:2009A000894632463B4620462946CDE9028907F03DFA0B46024606460F464046494607F0E5
:2009C0007FF8BF4B044699420D468A4640F3268101F13F4303F5E003034340F0FE81A2A3EB
:2009E000D3E90023DDE9020107F06AF83246804689463B462046294607F060F802460B46AB
:200A00004046494607F0A2FC002840F0E681A8464FF4801300204FEA2852A2F2FE321341BE
:200A20005344C3F30A52A74DA2F2FF321541C3F3130423EA0501C2F1140B44F48014BAF1D5
:200A4000000F02460B4644FA0BFB30463946B8BFCBF1000B07F032F806460F46DDE90201EC
:200A600032463B4607F02CF80D464FEA0B5A00247FA3D3E900232046294607F0D7F9324638
:200A8000804689463B462046294607F017F802460B46DDE9020107F011F877A3D3E900230A
:200AA00007F0C4F976A3D3E9002306460F462046294607F0BBF902460B463046394606F0E5
:200AC000FFFF06460F4602460B464046494606F0F7FF42464B4604460D4606F0EFFF0246FB
:200AE0000B463046394606F0E9FF2246804689462B462046294607F099F963A3D3E9002321
:200B000006460F4607F092F961A3D3E9002306F0D5FF32463B4607F089F95FA3D3E90023B2
:200B200006F0CEFF32463B4607F080F95CA3D3E9002306F0C3FF32463B4607F077F95AA396
:200B4000D3E9002306F0BCFF32463B4607F06EF902460B462046294606F0B0FF06460F46FA
:200B600002460B462046294607F060F90022CDE900014FF080433046394606F09FFF02460B
:200B80000B46DDE9000107F07BFA424606460F464B462046294607F049F942464B4606F0FA
:200BA0008FFF02460B463046394606F087FF22462B4606F083FF02460B4600203E4906F016
:200BC0007DFF8A44BAF5801FC0F235815146DDE9042307F02BF9CDE9000107E4002FFFF6B0
:200BE0002BAC4846594613B0BDE8F04F06F0FABDB8F1000FBFF6C9ACDDE90234009304F137
:200C000000430193FFF7F2BB4A465B4600202A4907F036FACDE90001FFF7E8BB2A4B21F099
:200C20000048984540F3E980284B0B4403430AD132463B4606F042FFDDE9022307F07CFB87
:200C400000283FF4E5AE1AA3D3E90023DDE9040107F0ECF816A3D3E9002307F0E7F8CDE940
:200C60000001FFF7C3BB00BFFE822B654715973C00000000432EE63FEF39FAFE422EE63FB6
:200C8000396CA80C615C20BED0A4BE726937663EF16BD2C541BDBB3E2CDE25AF6A56113FA0
:200CA00093BDBE166CC1663F3E5555555555C53F59F3F8C21F6EA5010000F03F0000F0BF3C
:200CC000FFFF8F40FFFF0F00FFCB904000346F3FBCF1000F40F09A80C3F1140345FA03F2B9
:200CE00002FA03F3AB4200F0AA806646FFF798BB002300241A462346CDE90A23CDE910232A
:200D00000022614B0024CDE9062391E44FF0000C6BE45E4B9C427FF734AC5B4B9C423FF75C
:200D2000AEABDDE900010022574B06F0C7FE48A3D3E9002304460D4607F078F846A3D3E9A1
:200D4000002382468B462046294607F06FF80022CDE900014E4B2046294607F067F80246BF
:200D60000B463FA1D1E9000106F0A8FE22462B4607F05CF802460B460020464906F09EFEED
:200D80002246804689462B462046294607F04EF802460B464046494607F048F832A3D3E95D
:200DA000002307F043F802460B46DDE9000106F085FE02460B46804689465046594606F0AC
:200DC0007FFE00200D46044652465B46B2E5DDE9002310461946FFF7CBBB25A3D3E9002348
:200DE000DDE9040107F022F821A3D3E9002307F01DF8CDE90001FFF7F9BA264B98453FF784
:200E000007AEDDE900239246934630E60026FFF713BB19A3D3E90023CDE90A2318A3D3E98E
:200E20000023CDE9102300221B4B4FF48024CDE90623FFF7FDBB5A4600F032F8C7E602F051
:200E40000102C2F10206FFF7EBBA00BFAFF30080000000604715F73F44DF5DF80BAE543EA3
:200E6000555555555555D53FFE822B654715F73F9C7500883CE4377E0000004003B8E23F34
:200E800006D0CF43EBFD4C3E0000F03FFEFFEF3F0000D03F0000E03F0000F83F0000000039
:200EA000F8B5C1F30A5304460D460E4617460BBB034621F0004633431BD02F4B002206F0CD
:200EC000B5FF2E4B04469F420D4637DB0E46C1F30A53363B40F2FE723B4493421ADC002B68
:200EE00011DD26F0FF4626F4E00646EA035520462946F8BD40F2FF729342EBD102460B46CA
:200F000006F0DEFDF8BD13F1350F1DDA4CF250339F420CDD14A1D1E9000122462B4606F042
:200F2000C1FD11A3D3E9002306F080FFF8BD22460FA1D1E900012B4606F0B4FD0CA3D3E9E0
:200F4000002306F073FFF8BD26F0FF4626F4E006363346EA0355204629460022084B06F0C5
:200F600065FFF8BDAFF300809C7500883CE4377E59F3F8C21F6EA50100005043B03CFFFF12
:200F80000000903C044B1A68B2F5806F03D01B689B0500D4FEE7704728ED00E0FEE700BF1F
:200FA000FEE700BF08B505F061F90F4B0F4A93420CD2181D0332121A22F003020C490244D3
:200FC00051F8040B43F8040B9342F9D109480A494FF000028842B8BF40F8042BFADB03F07B
:200FE00033FCFFF7CFFF08BD000000209B06002008930000A00600209F0F0020F0B500275D
:2010000006463C463D4683B0304604F007FB0195019B9C4206DD00BF019B01330193019B2E
:20102000A342F8DB304604F00DFB0195019BC4F5C8749C4206DD00BF019B01330193019BDF
:20104000A342F8DB0137B7F5487F06D0B7F5C87FCCBFC7F548743C46D6E703B0F0BD00BF03
:2010600038B5194D194C2B6820465B680121984701222B6811461B682046984705F0CAFB6C
:2010800001F066FF01F0E6FE00F0FAFD04F01CFB04F0AAFA0120FFF7B1FF01230C490D4A04
:2010A0000D480968136003600B691020A2F5FF521268984705F0B2FB01F046FABDE83840BF
:2010C0000020FFF79BBF00BFD801001000400340B00100100C4009400800094008B541F2DE
:2010E000342003F07DF901F019FD04F003FA0548082101F0E7FB04F04FF9BDE808400020A9
:20110000FFF77CBF8C0F0020002370B584B002A80821294CCDE9003301F0D4FB9DF80E30A3
:201120009DF80F60E56A46EA03264AF6CD310220A84731460320A8471A210120A847636B12
:2011400002A908221D4D0B209847A46A69460120A0472B68022B1ADC01A90220A04778B9E7
:201160002B68022B08DC0021154803F0D1FE0020FFF744FF04B070BD0199124806F086F8E9
:201180002B68022BEFDD104806F080F8EBE70F4A0F49104806F07AF80F4806F077F82B686B
:2011A000022BD9DD094A0A490A4806F06FF800990A4806F06BF8CFE7208F00000C0600201C
:2011C00040060020288E000084900000D88D0000E88D0000F08D0000008E0000188E000054
:2011E00001F004BD10B582B002AC04F8010D134620460A46012100F0C9FF02B010BD00BF67
:201200000C4B187082B110B4501EC0B20130084411F8014B814203F8014FF9D10132D1B2B8
:20122000044810BC00F060BE0132D1B2014800F05BBE00BFA806002041B1CC224B1EDBB21D
:201240000133034403F8012D8342FBD1704700BF813801289ABF024B18680020704700BF45
:20126000E00600200322024B02481A6004F0AABAE0060020608E000010B5044682B077210D
:20128000002001F055F84CB98DF8074001220DF10701F420FFF7B4FF02B010BD25238DF8ED
:2012A0000730F3E730B5802885B016D0812803D01D4B186805B030BD1B4C20680028F9D08F
:2012C00029B30120FFF7D8FF18480023184A032103F004FC02202060ECE70125124C7721B7
:2012E0000020256001F024F8182212498820FFF779FFB62304A901F8013D2A46E020FFF76E
:201300007FFF0020FFF7B8FF206805B030BD0748019103F0EFFB01990846FFF7ADFF0123EC
:2013200018462360C6E700BFE0060020EC06002065120000C8060020544B1B68032B40F063
:20134000A280431E012B00F29E802DE9F041504D062200210446284607F0EAFC7721002054
:2013600000F0E6FF29460622F720FFF73BFF002800F081802A794749E8786B79120142EAEB
:201380000032088842EA1312C0EB121303FB03F3B1F904604000B1F902701B13C0EBD2025F
:2013A00006FB03F307FB02F29B1303EBE2234FEA630CACF57A4C4FEAAC0707FB07F7B1F9FA
:2013C0000820B1F90A6078130CFB02F200FB06F0521002EBE0029214C88802F5004200FBFF
:2013E00002F08B61C0132A7895F801E0AE783AD0B1F90E80B1F910500CFB08FCFF124FEA65
:201400004C0C05FB07CCB1F90C70360946EA0E163F0446EA023607EBAC071F4D06EB2736DE
:2014200005FB06F505F1434505F5A005002DB3BFB5FBF0F06D00B5FBF0F04000C20802FB61
:2014400002F5B1F91420B1F9166087086D0B02FB07F206FB05F5B1F91210521302EB25322A
:201460000A4400EB2210012C03D103EB830080300012BDE8F08128460621FFF7DDFE4FF012
:201480000040BDE8F0814FF000407047E0060020E4060020C8060020CBF3FFFF8138012824
:2014A0009ABF024B18680020704700BF140700200322024B02481A6004F084B91407002093
:2014C000808E000010B504464421002000F030FF002C0CBF002410240222044B10461C8097
:2014E0001946BDE81040FFF78BBE00BF300F002010B5802882B016D0812803D01D4B186852
:2015000002B010BD1B4C20680028F9D029B30120FFF7D8FF18480023184A242103F0DEFAAD
:2015200002202060ECE7164C0B2023689B6B984723684FF480419B690B20984723684FF0D2
:201540008041DB690B2098470020FFF7BBFF01231846084A136002B010BD0748019103F012
:20156000C9FA01990846FFF7ADFF012318462360C6E700BF140700201C070020B11400006A
:20158000B401001038B5354B1B68032B5AD1820758D003280BD0012805D0022852D1304BC0
:2015A0001B68184638BD2F4B1B68184638BD2E4D44210446002000F0BBFE2946022204205B
:2015C000FFF710FE00283BD02A88130A43EA02239BB22B805B0433D5244D0222294601202F
:2015E000FFF700FE88BB21480421FFF725FE00202C786B78A978EA7843EA042442EA01223F
:2016000000B3900806F0CCFF4FF0745107F01CF8174907F019F807F067F9124B104D1860BE
:20162000A00806F0BDFF4FF0745107F00DF8104907F00AF807F058F901232860184638BDB7
:201640000A4DD0E74FF00043ABE702222046A918FFF7C8FD0028CBD1C5E700BF14070020F8
:201660000C07002018070020300F00201007002000007A44014B1868704700BF5C070020DF
:2016800070B506460E4C82B045210020256800F04FFE76B94FF4865305F002052560ADF88C
:2016A000063002220DF106010120FFF7A9FD02B070BD41F2C2020123ADF806202360F0E7EF
:2016C0005C07002000B5452183B0002000F030FE02220DF106010120FFF784FDBDF906304E
:2016E000002B08DB0023084A1021084803F0F6F903B05DF804FB064804F064F80222054BEB
:201700001A6003B05DF804FBC51600003C070020908E00005C070020802810B50DD0812876
:2017200009D10C4671B90D4803F0E4F92046FFF7A7FF204610BD002010BD0020FFF7A0FF57
:20174000002010BD0120FFF79BFF0023044A1021024803F0C3F9012010BD00BF3C07002040
:20176000C5160000813801289ABF024B18680020704700BF64070020032138B5124C134A99
:2017800023781160CBB1124D4321002000F0D0FD2846042100F07CFC00212070084600F037
:2017A000C7FD28886988020A42EA0022094D0B0A094843EA01232A8003800123074823702A
:2017C000BDE8384003F0FEBF3E0F00206407002060070020340F0020320F0020A88E0000C3
:2017E00030B5802883B023D0812803D0254B186803B030BD234C20680028F9D0002939D010
:20180000214D2B785BB14321002000F091FD002000F004FC00212870084600F089FD1B48B9
:2018200000231B4A032103F059F902202060DFE70024184B184D2146042218481C802C802E
:2018400007F076FA2046432100F072FD0222102302A921F8023D1046FFF7D2FC0A4B2146C8
:201860001870204600F064FD01231846054A136003B030BD054803F03DF9012318462360CA
:20188000B6E700BF640700203E0F00206807002079170000320F0020340F0020600700208A
:2018A00008B5174B1B78032B28D8DFE803F0151E0C0206F051FA00224FF07D5306F0B6FA35
:2018C00006F064FD08BD06F047FA00220D4B06F0ADFA06F05BFD08BD06F03EFA00220A4BE6
:2018E00006F0A4FA06F052FD08BD06F035FA0022064B06F09BFA06F049FD08BD002008BD41
:201900003F0F00200000303F0000103F0000203F813801289ABF024B18680020704700BF9E
:20192000B40700200222024B02481A6003F04ABFB4070020C08E000010B56821012000F013
:20194000F7FC3F23094C012221466C202370FFF757FC4F23214601226B202370FFF750FC8F
:20196000BDE810400021084600F0E2BC430F0020802838B50BD0812806D111F03F0141D1C0
:20198000294B1B68DB0429D4284B186838BD284C072023689B6B984723684FF400519B695E
:2019A0000720984723684FF08041DB690720984723680C20DB6B984723684FF440729B6AEB
:2019C0004FF480610C2098474FF4805400221948194B164904601A60086838BD164B174878
:2019E000196003F087F8FFF7A7FF154A136813F00103FBD14FF480500C4A0E491360086018
:201A0000106838BD4FF4805001240B4B0D4A074D1960106000230C4A082108482C6003F0C6
:201A20005DF82C60204638BD80200240B4070020B4010010A020024088070020940700207C
:201A40000428004090200240751A000010B5084C6821012000F06CFC214601223A20FFF7A4
:201A6000C1FB0021084600F063FC207810BD00BF410F00202DE9F041364C236813F0380FBA
:201A800029D1354D03F03F042E7866B9002C3CD12C70FFF751FFBDE8F04100232F4A05211C
:201AA0002F4803F01BB8E3B22B70002CF1D02D4FDB43682101203B7000F03AFC0122294922
:201AC0006C20FFF79DFB0021084600F031FC264804F0A8FEDFE7254E3278002AD1D0002585
:201AE000234F682101203D7000F022FC394601221C20FFF785FB07462946284600F018FC8D
:201B00002368002FBDD03570BBE76821012000F00FFC0923134F012239466B203B70FFF736
:201B20006FFB3F23394601226C203B70FFF768FB01220F491C202E70FFF762FB394601225D
:201B40003A20FFF74FFB3146304600F0F1FBE3B22B70ADE788070020420F00202519000000
:201B600094070020430F0020803801003F0F0020400F00200022014B1A707047440F002080
:201B800070B50024144B15481C7001F05DF9144A144D1368296823F0010313600B6A20463D
:201BA00098472B6820469B6A98472B6820461B6B984701210C4B0D4A196013689B07FCD5D4
:201BC0000B4C152023689B6B984723680021BDE870401B6A15201847440F00203405002023
:201BE0000C000140B80100102820086028200840B401001010B5064C042023685B69984761
:201C0000236804205B6B98470128F9D110BD00BFB8010010FFF7EEBF032801D000F012B9CE
:201C200008B5FFF7ADFF104B00219B68812098470E4B00219B68812098470D4B00219B68CD
:201C4000812098470B4B00219B68812098470A4B00219B68812098474FF48052074B1A6030
:201C6000BDE8084000F0EEB8608E0000908E0000808E0000A88E0000C08E0000A020024041
:201C800070B504F0C7FD0646FFF7B4FF3A4B4FF4A0601B68DB6998470121384B384A196064
:201CA00013689B07FCD54FF40055364C00F09CF8FFF760FF002003F071FF334801F0BEF89E
:201CC000236819209B6B9847236829469B6919209847236818209B6B9847236829469B699F
:201CE00018209847236817209B6B9847236829469B691720984723681B209B6B98472368DC
:201D000029469B691B20984723681E209B6B984723684FF480419B691E20984723680D2020
:201D2000DB6B9847194A2368156000214FF480729B6A0D209847236802209B6B9847236897
:201D400029469B6902209847236803209B6B9847236829469B690320984723681D209B6BAE
:201D60009847236829469B691D20984706B170BDBDE8704004F052BDB801001028200860B5
:201D800028200840B401001048050020A020024010B5094B09481B685B68984710F00C0FD5
:201DA000044605D00422064B02201A6004F03AFDB4FA84F0400910BDAC0100100020004071
:201DC0000428004008B5064B02201B685B6B9847012809BF034B0020186800F0010008BDAA
:201DE000B80100106020084070B5104D02202B685B6998472B6802205B6B984701280446AB
:201E0000F8D12B684FF44070DB699847084B094A1C6013689B07FCD5BDE87040064B012277
:201E20001B6806491B680648184700BFB80100102820086028200840AC010010006CDC02D1
:201E400000200040FF22214B10B51A70FFF7BAFF20B100231E491F4A0B6013601E4B4FF449
:201E600040701B681B6A984701211C4B1C4A196013689B07FCD51B4C082023689B6B984776
:201E800023684FF400519B6908209847236809209B6B984723684FF400519B690920984754
:201EA000236805209B6B984723684FF480419B6905209847236806209B6B984723684FF492
:201EC0008041BDE810409B6906201847980600200428004010040542B801001028200860C5
:201EE00028200840B40100102DE9F84F0746474B47481B78474A5B0003603B780E46136066
:201F000000F020FB00F5CC54434D193404E000F019FB001B002854DA2B685B06F7D4032386
:201F200002202B6004F07EFC00F00CFB00F5CC54394D193404E000F005FB001B002840DA76
:201F40002B68D807F7D4FFF723FF012E034659D9B8B30124A346DFF8BCA0DFF8BC8006F1CC
:201F6000FF39631E3B4413F8012FA145CAF800202BD80134B442F6D30523274C02202360EF
:201F800004F050FC00F0DEFA00F5CC55193504E000F0D8FA401B002813DA2368DA07F7D488
:201FA000FFF7F6FE044600F0CDFA1B4E00F5CC55193533685B0605D500F0C4FA401B002862
:201FC000F7DB00242046BDE8F88F0220C8F800B004F028FC00F0B6FA00F5CC55193504E0E7
:201FE00000F0B0FA401B0028EBDAD8F80030D907F6D4FFF7CDFE0134B442034602D2002824
:20200000AFD1DEE7002BDCD0B6E700BF450F002000280040082800400428004038B5184B40
:2020200018491B78184A5B000B60106000F08AFA00F5CC54154D193404E000F083FA001B70
:2020400000281ADA2B685A06F7D4072302202B6004F0E8FB00F076FA00F5CC540B4D1934DE
:2020600004E000F06FFA001B002806DA2B68DB07F7D4BDE83840FFF78BBE002038BD00BF90
:20208000450F00200028004008280040042800402DE9F84F394B3A4A1B7883465B0043F039
:2020A000010313600F4600F04DFA00F5CC55354E193504E000F046FA401B002822DA346807
:2020C00014F04004F6D10B230220336004F0AAFB41F699182B4D07F1FF3A5FFA84F9D145F8
:2020E0001EDA00F02FFA00EB080604E000F02AFA801B002806DA2B68D907F7D4FFF748FEC1
:20210000013418B900242046BDE8F88F09231E4A022012680BF809202B6004F083FBDCE7E7
:202120000523184C0220236004F07CFB00F00AFA00F5CC55193504E000F004FA401B002856
:20214000E0DA2368DA07F7D4FFF722FE04460028D8D00D4B5F441B680A4E07F8013C00F05C
:20216000F1F900F5CC55193533685B06CBD500F0E9F9401B0028F7DBC4E700BF450F002070
:202180000028004004280040082800402DE9F04F0546634F634E38780C4640003060287886
:2021A000614983B008609046994600F0CBF900F5CC56DFF878A1193604E000F0C3F9801BF0
:2021C000002847DADAF800305A06F6D403230220CAF8003004F026FB00F0B4F900F5CC5687
:2021E000DFF848A1193604E000F0ACF9801B002830DADAF80030DB07F6D4FFF7C9FD012CF3
:2022000003462CD930B34FF0010B2B19DFF818A1464E01935D4415F8013B0220CAF8003048
:20222000C6F800B004F0FEFA00F08CF900F5CC54193404E000F086F9001B00280ADA336858
:20224000D807F7D4FFF7A4FD019A0346954206D00028E0D10024204603B0BDE8F08F002B47
:20226000F8D00B223B782F495B00304C43F001030B600220226004F0D5FA41F69917A8F1DE
:202280000206DFF8A4B04E4408F1FF3A564519D000F058F9C51904E000F054F9401B002800
:2022A000D8DA2368D907F7D4FFF772FD0028D1D00923DBF8002002200AF8012F236004F01E
:2022C000B1FAE3E70523194C0220236004F0AAFA00F038F900F5CC55193504E000F032F93B
:2022E000401B0028B6DA2368DA07F7D4FFF750FD04460028AED00C4BC8441B680B4E08F822
:20230000013C00F01FF900F5CC55193533685B06A1D500F017F9401B0028F7DB9AE700BF0D
:20232000450F00200028004008280040042800402E4B10B504461970FFF744FD002830D075
:202340002B4B1A78A24232D000222A482A491C7002600A601B78002B2AD1284C4FF4C041BF
:20236000236805209B69984723684FF4C0419B690620984723680622DB6C0521204898478B
:20238000236808209B6B9847236809209B6B9847BDE810401B4B01221B681B491B681848C4
:2023A0001847FFF721FD124B1A78A242CCD110BD012BEDD1114C4FF4C041236808209B692B
:2023C000984723684FF4C0419B6909209847236809220821DB6C0A489847236805209B6B36
:2023E0009847236806209B6B9847D1E7450F0020980600200428004010040542B4010010F2
:2024000000200040AC010010006CDC0210B5064C042023685B699847236804205B6B984798
:202420000128F9D110BD00BFB80100100020002170B51B4A1B4BC2E900011B6804205B6B0A
:202440009847012801D0FFF7E1FF164B00201B68DB6998470121144B144A196013689B0731
:20246000FCD5134A13491368096823F4807323F00103114C13600B682046104998470423BD
:20248000312640F22120012223600D4D0D4903F1864303F510132E6008601A6070BD00BFE8
:2024A000A0060020B801001028200860282008400C000140C80100100000014000210004C1
:2024C0003C0001400800014010B40949094A0B68146808688342FAD1DA010023064902EBA4
:2024E0005462C1E9002310BCD1E90001704700BF082009400C200940A006002010B50B4997
:202500000B4A0B68146808688342FAD1DA010023084902EB5462C1E9002302F007FC00B90A
:2025200010BDBDE8104002F0E1BB00BF082009400C200940A0060020704700BF0146012002
:2025400000F052B804F0D2B92DE9F04104F062F90124002580464FF480314FF480701A4ECD
:202560001A4B1B4F32683D601C60186019601368284623219847336820461B682421984734
:20258000336825211B6802209847124A1249136843F4E02313600D6004F0A8F90F4B104942
:2025A000104A1B6800F50070086014603C601B6914209847B8F1000F01D0BDE8F081BDE886
:2025C000F04104F02BB900BF8401001004200940000024430020094008200940B00100102F
:2025E0001C200940A0022443431E012B10B419D9042801D010BC704700231A4610F0040003
:202600001CBF0E4C216013B101210D4B196012B101220C4B1A600028ECD001220A4B1A60C0
:2026200010BC7047012803BF084A03461160002310F00202E2D0064C2160DFE72020094025
:2026400080022443A0022443C0022443182009401C200940014B1868704700BFB807002038
:2026600008B5FFF76FFF184B1860FFF747FF174B1B686BB9164B1B68E3B9164B1B6833B1D1
:2026800000204FF480321449144B08601A6008BD4FF48072114B1A6004F028F900F205208B
:2026A0000F4B20F4FF7020F001001860084B1B68002BE2D0002001220A49084B08601A6036
:2026C00002F0F0FCD9E700BFB8070020A000244380002443C0002443C00224430420094013
:2026E0001C20094080022443012203490348044B08601A60704700BF00000840FFFF0F00B6
:20270000000C084038B504F085F8124AB0FA80F01368012B0BD001230F4C104D1049114A7F
:20272000400925600B601360C3070FD438BD0E4C09490A4D146040090D60094C094940F047
:20274000020023600B601360C307EFD5BDE8384004F064B8000C084000000840FFFF0F00B2
:202760000C0008400401004351E5CC1A012203490348044B08601A60704700BF00000840F8
:20278000FFFF0F000C00084008B5064803F044F830B10121044B054A196013689B06FCD597
:2027A00008BD00BFBC070020000222431410094070B5054604F02EF80B4C294606460B48EF
:2027C00003F02CF8FFF7E0FF236868681B689847236868689B6898471128F9D106B170BD2C
:2027E000BDE8704004F01AB8A0010010BC07002038B598B10022134913480B68134D144CE8
:20280000006823F4C0530B602A602260C36801209847104A13689B06FCD438BD04460E48A9
:2028200002F0FAFF0028E5D009C81C430028FBD1002CDFD0034A136823F4C05343F4006345
:20284000136038BD04100940A0010010800122430002224314100940BC07002038B505462D
:2028600003F0D8FF04462946054802F0FDFF0020FFF7BEFF04B138BDBDE8384003F0CEBF80
:20288000BC070020F8B50646B0B10078B0B1B9B101317518741C04E014F8010B30B1AC429E
:2028A00004D000F04FF9A71B002CF5D100F05EF90128FBD03846F8BD0746F7E70746F5E796
:2028C0000F46F3E710B40B4B0B4C1A780133FF2A0DD1A342F9D1094A39B1114401380139D7
:2028E0000B78914200F8013FF9D110BC7047014AF2E700BFC8FF0100D0FF0100F012005030
:2029000038B50C4D02202B685B6998472B6802205B6B984701280446F8D12B684FF400703D
:20292000DB699847044B054A1C6013689B07FCD538BD00BFB80100102820086028200840AF
:202940002DE9F04340F2F275DFF8DC8083B0FFF7D7FFD8F800302A4EDB682A4898473368BC
:20296000294C5B69152098472368DFF8C090274F23F4FE63D9F8002023F0020323603D6041
:20298000D36B1D2098474FF0FF334FF000502049D9F8002008600093D2F840901C211D2272
:2029A0001848C847D8F800206023D2F8048019494FF4E1321348C047142140F2011340F220
:2029C000013C154A154811600268154942F0100202600868134A002818BF634613603D609A
:2029E0000B6853B115202368326843F050032360136903B0BDE8F043184703B0BDE8F083CC
:202A0000B001001000100040381000404410004090200240006CDC02341000402C1000404D
:202A2000C007002030100040D0010010B401001008B5064B02201B685B6B9847012809BF40
:202A4000034B0020186800F0010008BDB80100106C20084038B50446FFF7EAFF18B1254AE7
:202A600013681907FCD4032C03D0234B1B6803B138BDFFF7DDFFA0B1204B21481B68DB6892
:202A80009847204B15201B685B69984740F2F2701D4A1E49136823F4FE6323F002031360B1
:202AA00008601B4D4FF400702B681B6A9847032C09D12B684FF400709B6A98472B684FF493
:202AC00000701B6B98470121124B134A196013689B07FCD51D2000F0CDF91C2000F0CAF9FC
:202AE0004FF0FF3000F0C6F9BDE838404FF0FF3000F0C0B918100040C0070020D001001095
:202B000000100040B00100103810004044100040B8010010282008602820084010B503F0C7
:202B200079FE0446054800F089F90022044B1A6004B110BDBDE8104003F070BE5C05002011
:202B4000C007002010B50446FFF772FF08B9FFF7F7FE044B2146BDE810401B680248DB69B0
:202B6000184700BFD00100100010004008B5FFF75FFF18B1024B1868C0F3C00008BD00BF68
:202B80001810004070B5FFF7BBFE40F2F2710C4B0C4A1B68116013F0500F0DD00A4C0B4ED5
:202BA0000B4D06E0336828461B699847094B1B681BB92368DB06F5D570BDC0B29847EFE736
:202BC000401000404410004018100040D001001000100040C0070020034A136823F004036F
:202BE000136030BF704700BF10ED00E070B503F011FE02F01DFA18B1BDE8704003F00EBE13
:202C00007F4802F009FE0225044648B1636823B19847854228BF0546EDB22468002CF5D1F6
:202C2000FFF790FC774B06461B6843B1764B1B681B1A022B38D4A3F28F23002B3DDB02F05F
:202C400075F8F8B102F07AF80446FFF73DFC241A002CD1DDFFF7FEFC00EB4420831BA3F2F7
:202C60008F23002B31DA013D012DC5D8831B082B00F1B58006F580310B1A11EA230138BF85
:202C8000014604E0012D40F0AD8006F580310220FFF7AAFC5D4A136823F00403136030BF76
:202CA000BDE8704003F0BABD002D00F0A38002F03DF80028A0D00025C4E7022DBFD102F0D5
:202CC00035F80028E1D00125BCE7012DCED0022D92D101462846FFF787FC494802F09CFD7D
:202CE0000446002870D00625A3680BB1022098472369246825EA0305002CF5D1FFF736FDE5
:202D00006B0764D425B1424B28461B689B69984700F07AF90020FFF76BFD3E493E4A0B686F
:202D20003B4823F003030B601368016843F00F0313608B69392098470023384A384913602B
:202D4000184613600B6003F03BFB062D43D0354C354D364E2B682368326823F003032360ED
:202D60005368032132489847294B1B689B6B98472B6803F05FFC00212E4A336811602C4845
:202D80005B6801219847012123682B4A43F00303236011602B6803F07FFCFFF7F5FCFFF742
:202DA000ADFBFFF7E3FC164802F036FD044628B1E36803B198472468002CF9D103F02EFD72
:202DC000BDE8704003F02ABDFFF7D0FC06250022194B1A6097E7022003F098FAB7E706F11D
:202DE000080154E7022D7FF407AF711E2846FFF7FBFB72E701F09AFF00287FF423AFFBE61D
:202E0000C4070020800224431820094010ED00E0B801001000100940081009404010094064
:202E200020042243242208402C200940D801001000400340800104430C400940014601488D
:202E400002F0ECBCC40700200146014802F00CBDC407002010B5054802F0DAFCBDE81040E8
:202E6000034B20211B6803201B681847C407002084010010431C0ED010B5074B04461B689A
:202E80004FF4C0421B68002198470022034B43EA84031A6010BD7047B4010010001A4442E3
:202EA00038B5034C2568284602F0FAFB256038BDE020024070B51B4B0C461B6805465B68CA
:202EC000984714F00C0320F0E06222F4EC2207D0042B20D0082B21D00C2B08BF42F44032CA
:202EE00014F003030DD142F4C04223060D4B2846BDE870401B6848BF42F480221B68002168
:202F00001847022B04D0012B08BF42F48042ECE742F40052E9E742F40032E1E742F4803223
:202F2000DEE700BFB4010010064B1B68C340DB074CBF054B054B1B6823FA00F000F0010063
:202F4000704700BFD020024080200240C02002400022412310B584B002A8CDE90223FFF7CB
:202F600027FC042003F090FC032812D00321042003F05CFC042003F087FC0328FAD1074A0A
:202F80001C2312680090546800214FF040520448A04702A8FFF762FC04B010BDA4010010D3
:202FA00000A00C400022412300B583B06846CDE90023FFF7FDFB012003F066FC012803D0D0
:202FC0000121032003F032FC6846FFF747FC03B05DF804FB0022412300B583B06846CDE9CB
:202FE0000023FFF7E5FB012003F04EFC012803D0044B986B03F0A2F96846FFF72FFC03B01C
:203000005DF804FB4800001010B54123002482B06846CDE90043FFF7CBFB0320214603F0A5
:2030200005FC012003F030FC18B1044B986B03F085F96846FFF712FC02B010BD480000103A
:2030400070B5038804465BB140F22522934203D182290AD0012070BD00232380032070BD5F
:2030600040F225232380012070BD094B094E1D69FFF77CFB02F064FC02F032FC8021A84745
:20308000002880B2ECDD02F025FCF3689847EFE7208F0000DC910000024B186800F0010010
:2030A000704700BF9C21084010F0030370B506460D4602D1028811051CD403F0ABFB1C4B68
:2030C0001B68DB071DD51B4B1B4C1E6023684CF250322B6003E02368013A2B6011D013F060
:2030E000FF0FF8D000B32878A0F10100B0FA80F0400970BD438003F08DFB0D4B1B68DA078B
:2031000002D468B1002070BD338813F4405FDAD003F44063B3F5006F04BF084B1E60D2E76A
:2031200003F07CFB0020EEE703F078FBDBE700BF9C2108400010044004100440C8070020A9
:203140000A4A01E0013A0ED0438803F44063B3F5806FF7D1408800F44060A0F58060B0FAE2
:2031600080F0400970471046704700BF20A1070030B583B003F04EFB254C05462368192077
:203180001B6A9847236812201B6A9847236819205B699847236812205B690834984723681C
:2031A00001205B699847236801205B6B98470128F9D11849184B194A0860186013689B07E3
:2031C000FCD50023124C16481649226803600B60136919209847236812201B699847A5B17E
:2031E00040F2FF350024104B104A114911480D60046001A91A601048FFF756FFA0F10100B3
:20320000B0FA80F0400903B030BD03F007FBE7E7B00100102C200840282008602820084053
:2032200010100460141004600010044051000706000004601C1004400100060410B586B0F6
:203240001422002101A805F073FD012140F60A0214489DF81130046861F3030301A8694655
:203260008DF811300594ADF80420FFF71DFF012802D0002006B010BD0B4801E00138F9D040
:20328000BDF8063003F44063B3F5806FF6D1BDF8060000F44060A0F58060B0FA80F0400924
:2032A00006B010BDD007002020A1070000B587B01422002101A805F03BFD012140F6090250
:2032C0009DF8113001A861F3030369468DF81130ADF80420FFF7E8FE012803D0C0B207B0D6
:2032E0005DF804FB0F4801E00138F8D0BDF8063003F44063B3F5806FF6D1BDF8063003F47C
:203300004063B3F5806F03D0002007B05DF804FB054B01201A78002AE1D1044A0599187022
:203320001160DCE720A10700460F0020D007002030B587B003F06EFA314C05462368192022
:203340005B699847236812205B6998472D4B1B68DA072CD4FFF7AAFF002401212A482B4BC1
:203360002B4A0460196013689B07FCD5294C012023689B699847236801205B6B984702288E
:20338000F9D11F4C192023681B6A9847236812201B6A9847236819201B69984723681220CB
:2033A0001B6998470DB903F039FA07B030BD002319491A4A0B6002A819461360102205F023
:2033C000B7FC012140F60D029DF8153002A861F3030301A98DF81530ADF80820FFF764FE5C
:2033E0000128B7D10E4A01E0013AB3D0BDF80A3003F44063B3F5806FF6D1BDF80A30A9E7BF
:20340000B00100109C2108402C2008402820086028200840B801001010100460141004603D
:2034200020A1070008B503F09BF9052803460BD0032804D060B101280FD0002008BD02220E
:20344000084B01201A6008BD064A0120136008BD0322044B01201A6008BD0521014A11605A
:2034600008BD00BFD021084008B5FFF781FE012803D0FFF75DFF002008BDFFF7DFFE01282E
:20348000F7D108BD08B5FFF711FFFFF7D7FE012802D0FFF74DFF002008BD00BF70B5154AAC
:2034A00000281268144C18BF0024D30700D470BD03F0B0F900210646104A1148114B124DBD
:2034C00010601C602B6842F8081C1B6A192098472B6812201B6A98472B6819201B6998471A
:2034E0002B6812201B699847002EE0D1BDE8704003F094B99C2108400000C080181004605F
:203500000000408014100460B001001000280CBF0222082231B9044B1A43044804490360CF
:203520000A6070470023F8E70000C08010100460141004600028034B18BF0023024A1360ED
:20354000704700BF0000C08014100460014B1868704700BFC807002038B5044615460A461A
:20356000002105F0E5FB0122637B258062F30303637338BD014B1860704700BFCC0700205C
:2035800010B50E4B1B68DA0708D50D4C23685B0209D46FF000420A4B1A6010BDFFF7E8FD96
:2035A0000128F2D010BD0122064B07481A7001F069FD6FF480032360EBE700BF9C210840B0
:2035C00010100460470F00207005002008B5124B1B68D90707D4114803F058FEFFF7C8FDA7
:2035E000012800D008BD03F015F90D4B1A6812020BD40B4B1A6812F00A0F1CBF6FF00A0206
:203600001A60BDE8084003F009B96FF4000205481A6001F037FDECE79C210840D88E0000FF
:203620001010046070050020014B1878704700BF480F002008B5FFF72FFD30B1044B5B88B6
:20364000022B14BF0220012008BD022008BD00BFD407002030B583B0FFF71EFD18B1134C70
:203660006388022B08D001A91048FFF71DFD012805D0002003B030BD012003B030BDFEF7D4
:2036800061FF0A4C00F1400504E0FEF75BFF401B002809DA60880228F7D1A0F10200B0FA8E
:2036A00080F0400903B030BD6088F6E7D407002008B5B4290A46014628BFB422024805F0C4
:2036C000C1FA002008BD00BFEA0A002030B589B002A840F602021821FFF73EFF012212498B
:2036E0009DF81830096862F302038D88DBB20F4C43F0080302A801A98DF81830ADF81A50B7
:203700008DF816200794FFF7CFFC012802D0002009B030BD02A8FFF713FDA0F10100B0FAE5
:2037200080F0400909B030BDC40500209405002008B5FFF7CBFF012801D0002008BDFFF736
:2037400089FFC0B208BD00BFF8B50E4D00200E4F2C680E4E06E02379022B06D024682B68D2
:20376000A34209D02379032BF5D13B782BB124682B680120A342F5D1F8BD304601F082FCE7
:203780000120EBE7DC0A00204B0F00207005002030B583B0FFF7DAFE0446FFF77DFC08B9C1
:2037A00003B030BD01A90A48FFF77EFC0128F7D1FEF7C8FE00F1400504E0FEF7C3FE401B26
:2037C0000028EDDA638803F44063002BF5D0E7E7010001040B280BD00C2801D001207047C6
:2037E000042A07D131B10B4B00201B680B607047082A01D0022070470029FBD0064A4B1E3D
:20380000073112F8010903F8010F8B42F9D10020704700BF5C0800200308002000B585B08B
:20382000002102A8082205F083FA42F2034302A801A9ADF80830FFF737FC20B19DF90A30AC
:20384000803303D0002005B05DF804FB9DF80C0000F00C00A0F10400B0FA80F0400905B06F
:203860005DF804FB30B583B0FFF716FC18B11D4C6388022B02D0012003B030BDFEF762FEA2
:2038800000F5007507E0FFF7C9FF40B1FEF75AFE401B002803DAFFF7FFFB0028F3D101A9F5
:2038A0001148FFF701FCFEF74DFE00F1400507E06088022809D1FEF745FE401B002803DADB
:2038C000FFF7EAFB0028F3D1608842F202439842D1D042F20743C01AB0FA80F0400903B0D7
:2038E00030BD00BFD4070020010001040B2810B502D00124204610BD082A13D191B1114A46
:2039000001F1080313F8010D8B4202F8010BF9D1FFF7C2FB18B10C4B5B88022B05D0002418
:20392000204610BD0224204610BDFFF79BFF012814BF03240024FFF78DFE012818BF03247C
:20394000D8E700BFFC070020D407002030B585B0FFF7A2FB20B3144B5D88022D20D142F2B3
:20396000034402A80822002105F0E2F99DF80C3065F301038DF80C309DF80C0000F00303B6
:20398000022B0ED1082200210DEB020005F0D0F901A902A8ADF80840FFF786FB0028EBD17C
:2039A000FF2005B030BD00BFD40700202DE978480446FFF771FB20B1184B5B88022B02D0F4
:2039C0000020BDE8788802F025FF05463CB1144A144B12681A609DB10120BDE87888104BB4
:2039E0004FF0000C1E6800230E4C16F1804022684CF10001994208BF904205D32660EAE747
:203A000002F00CFF0120DCE7FEF79CFD064A07491368086001331360F0E700BFD40700207C
:203A20000430044064080020680800206008002008B5FFF7F9FD012806D0FFF72DFB18B1DB
:203A4000094B5B88022B01D0002008BDFFF724FB18B1FFF7E3FE0028F6D1FFF777FFFF2815
:203A6000F2D0C0F3801008BDD407002010B5FEF769FD00F5007407E0FFF7D0FE40B1FEF767
:203A800061FD001B002803DAFFF706FB0028F3D1FFF7E8FEFFF74CFCFFF7B6FA00220D4B8B
:203AA0000D4819794280022900D11A710B4B1A79022A04BF00221A71094B1A79022A04BF7B
:203AC00000221A71074B1A79022A04BF00221A7110BD00BF9C080020D40700202C09002018
:203AE000BC0900204C0A002008B5FFF79DFD012801D0FFF7BBFF012008BD00BFF8B5FFF72C
:203B000093FD01282ED0FFF74DFAFFF7C5FA18B11D4B5B88022B25D0012588241B4A1C482B
:203B2000577946791B491C4B65F3830765F38306577146714F795E7965F3830765F3830687
:203B400010600160C480D480CC804F710B601A60DC805E71FFF73EFAFFF786FCA84203D07D
:203B60000020F8BD0120F8BD0C4B1878003018BF0120FFF793FCFFF7A9FD0128F0D1BDE8DB
:203B8000F840FFF767BD00BFD40700209C0800202C090020BC0900204C0A00204B0F00202B
:203BA00030B585B0072800F2B280DFE800F011202B2E315E6304574C2177FFF76DFA18B100
:203BC0006388022B00F082800024204605B030BD012900F08C800191002973D1FFF724FD73
:203BE0000128F1D0FFF742FF01990C46EDE7A1F10B030F2B66D8474CC9B2A37B8B42E3D020
:203C0000A173DAE7434C6186D7E7424C2186D4E731F0070256D13F4CC1F34005237E3E48AF
:203C200061F30003DBB243F0020365F38203657E03F0870362F3C71362F3C7150278C1F39D
:203C400080019142657623760170B6D104F118010222324804F0F6FF03A93148FFF724FAD6
:203C6000002814BF00240324AFE731F0010329D1CCB2AAE701F115031A2B23D86FF014037A
:203C80000C24284A01E052F83430994235DD14F1FF34F8D2FFF700FA002895D003A80422B6
:203CA000002105F045F810221E4B03A803EBC404A38802A9ADF80E30ADF80C200024FFF711
:203CC000F3F982E70224204605B030BDFFF7CAFD012814BF03240024FFF7D4FB012812D08D
:203CE000FFF7B8FC01283FF470AF03246DE7FFF705FF01283FF468AFF7E70A4B0A4A03EB42
:203D0000C4031360C6E70020FFF750FEE8E701245BE700BFD40700204B0F00205608002070
:203D200054080020608F0000C4050020002900F0A58070B50C4684B0102800F2A180DFE834
:203D400000F00E1B20252A41444A5083899F9F8E92960900052300200B6004B070BDFFF729
:203D60009BF930B1534B5888A0F10200B0FA80F0400920600020F0E74E4B00209B7B0B60A9
:203D8000EBE74C4B00205B8E0B60E6E7494B00201B8E0B60E1E70023464A0B60137E03F047
:203DA00001030B60127E520744BF43F002030B60414B1B78002B5FD00B68002043F00403BF
:203DC0000B60CAE700200860C7E73C4B00201B681B680B60C1E7374B002093F91C300B60EC
:203DE000BBE7FFF759F900284CD0324B5B88022B48D10026082202A8002104F099FF022224
:203E00009DF80C3042F2034562F383038DF80C300BE0002102A804F08BFF01A902A8ADF88C
:203E20000850FFF741F9002837D09DF80C2002F00C02082AEDD0002E34D19DF90A30236095
:203E4000803319D1032088E71D4B00201B785BB20B6082E71B4B00201B780B607DE70B2321
:203E600000200B6079E71A2300200B6075E76FF0140300200B6070E700206EE7022070478D
:203E800001206AE7FFF73AFE012808BF0646B1D06FF07F03032023605FE780238DF80A3096
:203EA000002EF5D0FFF7C0FB0128C6D0FFF7DEFDC3E700BFD40700204B0F0020C405002007
:203EC0004A0F0020490F002070B588B00646FFF7E3F8002848D03A4B5B88022B44D1002568
:203EE000FEF730FB6FF01F04241A07E0FFF796FC012843D1FEF726FBC44241D5FFF7CCF84A
:203F00000028F3D102A842F601421821FFF724FB00222C4B2C4CF6B28DF81760217806935B
:203F200004929DF81430891A18BF012162F3030301208DF81430FFF7E9FA02A801A9FFF70E
:203F4000B3F830B3207801E0002836D0BDF80A3003F44063002BF7D0BDF80A40A4B2B4F5B3
:203F6000105418BF012416E0FFF7C8FD012803D00124204608B070BD0546B1E70028C1D028
:203F80001DB1FFF751FB012813D10224204608B070BD20780124003018BF0120FFF7CAFAF4
:203FA000002DE6D0FFF740FB0128E2D0FFF75EFDDFE7FFF75BFD0224E8E7FEF70DFEC1E710
:203FC000D4070020EA0A00204B0F002010B50C46B42C2246014628BFB422044804F032FE85
:203FE0002046BDE81040FFF76FBF00BFEA0A002010B5FFF719FB01280FD0FFF74DF818B194
:204000001F4B5B88022B1FD0FFF778FD0128044606D0FFF709FB012813D10124204610BD24
:20402000FFF794FCFF2805D000F0030010F1FF3418BF0124FFF7F8FA0128EFD0FFF716FD02
:20404000ECE7FFF713FDE8E7FEF77CFA00F5007407E0FFF7E3FB40B1FEF774FA001B002892
:2040600003DAFFF719F80028F3D1FFF76FFCFF28D3D000F0030010F1FF3418BF0124CDE76E
:20408000D40700202DE9F04B564D82B080460F462E68FEF757FA544C241A03E0FEF752FA06
:2040A000C44209D53379022BF8D0032B07D00024204602B0BDE8F08B3379032BF7D12968E7
:2040C0000E7AF6B2082E03DDA6F10804BC4208DD002420460B680C720C712B6002B0BDE83A
:2040E000F08B09314046224604F0ACFD04222968F31CCB5CDFF810815BB288F80030331D1E
:20410000CB5C0536394F03F03F0331440DEB02003B7004F097FD019EFEF7BEFF18B1344B45
:204120005B88022B5BD0FFF7E9FC4FF00109FEF7B3FF78B12E4B5B88022B0BD10020FFF7D5
:2041400035FCB9F1000F05D0FFF76EFA012801D0FFF78CFC274BB6F1404FD3F8009031D8BE
:204160006FF4BF704FF0FF314FF0000B8219224E41F100033668901B63EBE6711BEB0002BE
:2041800049EB0103190241EA12611002002343F6095204F0CFFB194B194A1B78106053B9D1
:2041A00098F80010042049B289B201F0F9FB3978032001F0F5FB00222B6819681A72296020
:2041C0001A7175E7FEF7BEF90E4B1B68C3F17E4303F57203C34248BF09F1FF39C0E74FF06A
:2041E0000009A4E7E40A0020FAFEFFFF490F0020D407002068080020D00700204B0F0020B3
:204200005C080020600800204A0F002010B5FEF743FF18B1144B5B88022B1DD0FFF76EFC98
:20422000012811D10020FFF7C1FB0446FFF7FCF9012816D144B1BDE8104000230B4A4FF4B7
:2042400087310B4800F04ABC0023BDE81040074A8021074800F042BC0020FFF7A7FB044614
:20426000E8E7FFF703FCE5E7D40700200D4200006C0800202DE9F04700254B4E4B48FEF73D
:20428000DDFDFFF7CFF830469022294604F050FD90222946464804F04BFD90222946454816
:2042A000454C04F045FD90222946444804F040FDDFF82481424B2946802220461E60C8E9AA
:2042C000006504F035FD02224BF61A1E01264FF0FF0C3C4FA621384642F2020A42F60109F3
:2042E000637EA4F80EE062F3010365F3C7136376237E94F80DE043F0070303F0870365F3C3
:20430000C7132376E37EC4F8108066F3030E94F80C8084F81AC094F837C084F80DE003F0C6
:204320008003DFF8B8E043F06F0366F3030C65F30308C4F814E0E37684F837C0217720F8EF
:2043400002AB04F118016580C4E90155A577E577C4E90855A563A4F8009084F80C8004F008
:2043600071FC324604F11A01381D04F06BFCFFF7C5FBB04203D02C462046BDE8F0870446DF
:204380001148FFF7F7F82046FFF710FB2B460F4A4FF487310E4800F0A1FB29460D4800F01D
:2043A000B7FD2046BDE8F0879C080020800500202C090020BC090020D40700204C0A0020B3
:2043C000E40A002054080020588F00000D4200006C08002070050020DC0A00208C0800203A
:2043E00000F07CB8034B1B68002B14BF01200220704700BFA00B0020F8B503880446002B99
:204400002ED0B3F5847F05D1184B1B788B4205D00120F8BD002323800320F8BD144D2B681D
:2044200073B1144B144A1B6812685B68022017460026984730182B6847F1000198472E60D6
:204440000E4B40F201401B689B6A984701210C4B0C4A196013689B07FCD50B48FEF7F4FCBB
:204460004FF4847323800120F8BD00BF99060020A00B0020CC01001004800240B8010010D4
:204480002820086028200840C805002038B500240D4D0E4A2C6013680D4923F00103096847
:2044A00013604B6931209847224620464FF4807102F000FA0122074B2A6019782246BDE81A
:2044C0003840054800F0BEBDA80250420C800240B001001099060020DC05002010B5074C09
:2044E0002378802B00D010BD00F00AFD002120700348BDE8104000F00BBD00BF99060020BB
:20450000DC05002008B502F085F9003018BF012008BD00BF80F31088704700BF827A044BF5
:2045200003EBC2035B68181AB0FA80F040097047A40B0020484B827A03EBC202D2E84F1F81
:2045400011F0FF0F03D0BFF35F8F022070472DE9F041012184B0C2E8471FBFF35F8F002F84
:2045600077D10446817A3D4A03EBC10358601368C078DB6B3A4E98473A4DA37A326805EB2F
:20458000031352695868B0469047A37AD8F8002005EB03135868536B984701280646F4D113
:2045A000A37AD8F8002005EB0313D269986890472D4B2E4A1E6013689B07FCD50320A37A3A
:2045C0002B491B01EA58536923F00F035361A37A1B01EB581862A37A096822891B01E858E9
:2045E0000E68002A28D1082163683A46CDE9003100232049B047A37A184A26781B01E858CB
:2046000013686178A27800965E6C4FF0FF33B047A37A174E1B01EA58536843F002035360DE
:20462000A37A32681B01E85803A9136998470028F6D104B0BDE8F081237A627A23B9002A28
:204640000CBF03270127CEE7002A14BF03270227C9E70220EDE700BFA40B0020B40100103F
:20466000B8010010E48F00002820086028200840C4010010006CDC0270B5214E827A06EB1E
:20468000C2035B68984239D11E491F4B096803EB021304460A6A9868904701211B4B1C4AE6
:2046A000196013689B07FCD51A4D60782B689B6B98472B684FF4005160789B6998472B6867
:2046C000A0789B6B98472B684FF40051A0789B6998472B6820789B6B98472B6820784FF43D
:2046E00000519B6998470020A37A06EBC3035860A37ABFF35F8F06F8330070BD032070BD6F
:20470000A40B0020B8010010E48F00002820086028200840B40100102DE9F04F364E857AB1
:2047200085B006EBC5067468A0425ED19A46334B0091334E1B6806EB051504465B6B6868BD
:204740001746984701284CD1A07A2E4A00013318DB6812681A4244D0DDE90E3203EB0208CE
:20476000B845B8BFB846B8F1000F36D041DD0025CDF804A0DFF89090AA460E9D0DF10C0BB6
:204780005745D4BF0021009B3058C8BF13F80A100391D9F8002052689047A27AD9F80010E7
:2047A0001201B058CA6859469047554503DD039A019B03F80A200AF1010AA07AD0454FEAF0
:2047C0000010DDD1104D01E0A07A00012B6830581B69594698470028F6D1002005B0BDE83C
:2047E000F08F042005B0BDE8F08F032005B0BDE8F08F0DF10C0BE5E7A40B0020B8010010C8
:20480000E48F000078200840C4010010074B827A03EBC2035B68984201D003207047012303
:20482000C178034A8B40136000207047A40B0020A02002400123C178024A8B401360002005
:20484000704700BF9020024010B54E4CFCF708FCFDF7ECFD00F024FC00F07EFB00214A4891
:2048600000F056FB00F000F9FDF73EFF00F086F900F054FCFCF732FC01F0AEF800F026FC64
:204880002368022B11DCFCF73FFC404800F06AF9FDF738FF00F07AFB0446FDF767FF14F032
:2048A000FF0FF7D1FCF79CFCF4E7394A39493A4802F0ECFC394802F0E9FC2368022BE2DD8C
:2048C000334A3449344802F0E1FC354B3548196802F0DCFC2368022BD5DD2D4A2D492E487E
:2048E00002F0D4FC304B3148196802F0CFFC2368022BC8DD264A2749274802F0C7FC2C4BEC
:204900002C48196802F0C2FC2368022BBBDD204A2049214802F0BAFC4AF6CD31264802F020
:20492000B5FC2368022BAEDD194A1A491A4802F0ADFC1A21214802F0A9FC2368022BA2DD4E
:20494000134A1449144802F0A1FC1D4B1D48198802F09CFC2368022B95DD0D4A0D490E488D
:2049600002F094FC184802F091FC2368022B8ADD164800F015FA2368022B84DD144802F0F3
:2049800085FC80E70C060020FC0500207092000004900000E88D0000F08D00000C900000B8
:2049A0001492000044900000FC91000054900000DC910000609000006C900000889000009B
:2049C000360F0020A8900000B89000008C0F002084900000F0B5038883B005465BB14A2BF4
:2049E00004D188291BD0012003B0F0BD002303202B8003B0F0BD194800F00EFF044630B1EB
:204A0000A168201D00F078F92468002CF8D10122134B1A704A2301202B8003B0F0BD0F4873
:204A2000019200F0F9FE04460028F3D0019A031D9A4205D02468231D002CEBD09A42F9D102
:204A4000084E2146054800F00FFFD4E90523376832600BB1E06998473760DBE7B40B00201C
:204A60004C0F0020400D002010B50024054B06481C7000F0CDFE2146BDE81040034800F0E9
:204A800047BA00BF4C0F0020B40B0020EC05002070B504460D48049D0078C4E90623656172
:204AA00030B9A1600A482146BDE8704000F0B6BE084D094B2E68201D2B6000F01DF92E60FF
:204AC0002146BDE87040024800F0A8BE4C0F0020B40B0020400D0020EC05002010B5044C8D
:204AE00082B024680094FFF7D3FF02B010BD00BF400D002010B50A4B04461B783BB9C0E95D
:204B000003332146BDE81040064800F0ADBE043000F01EF92146BDE81040024800F0A4BE27
:204B20004C0F0020B40B002038B50C4B1D7875B904460B4800F070FE38B1A04202D10BE090
:204B4000844209D000680028FAD1012038BD0430BDE8384000F0E4B8002038BD4C0F0020D8
:204B6000B40B002010B50446006830B1002100F0CFF954F8040F0028F8D110BD704700BF92
:204B800010B5FDF7A1FC0B4B1B689A68D3E900142144091A4AB1D2E9003423441B1A92680C
:204BA000994228BF1946002AF5D1034B0844186010BD00BFBC0B0020B80B00202DE9F8432B
:204BC0000388054673B3592B27D1872930D082291ED14FF000092D4FDFF8B8803C68BCB12F
:204BE000002603E0A368264693B11C46204600F087FA0028F6D022468821E06800F022FA65
:204C000030B3404600F03EFAA3682646002BECD1592301202B80BDE8F88300232B8003204B
:204C2000BDE8F883194A0120136059232B80F2E7164F39680029EBD0CB689A4203D014E09D
:204C4000CB68934210D189680029F9D13960DFE7E060A368BEB1B3603B68C4F808907BB138
:204C6000FFF78EFF3C68BAE739608B68002BCFD0D3E90204944214BF194688600346F5E73F
:204C8000034A1360C4E73B60E7E700BFBC0B0020B80B0020FC05002010B50446104800F03F
:204CA000F1F91049E3680A684BB142B194420FD0134601E09C420BD09B68002BFAD10A4B0F
:204CC000A2601B680C60E360BDE81040FFF758BF054B1B68E360BDE81040FFF751BF00BFCE
:204CE000FC050020BC0B0020400D0020014800F0C9B900BFFC05002010B5044600F0F2F9BA
:204D00002046BDE81040FFF7C7BF00BF10B5044600F0F0F92046BDE81040FFF7BDBF00BF89
:204D2000C068B0FA80F04009704700BF024B1868003018BF01207047BC0B0020024B186812
:204D400008B1024B18687047BC0B0020B80B002010B5114B04461A68824213D072B193689A
:204D6000984208BF134605D043B19A68A24201D01346F9E7A2689A60FFF702FF0023C4E9B5
:204D8000023310BD82681A60002AF5D1034B1A600023C4E9023310BDBC0B0020B80B002059
:204DA000F8B1F8B5002405460F4E104F54B1E3070DD5295D304602F069FA072C10D0013408
:204DC000002CF4D12978304602F060FAF7E7384602F05CFA295D304602F058FA072CEED1A9
:204DE000F8BD034802F052BA00910000FC900000EC9000002DE9F843234F3D68854208D015
:204E0000002D38D02B4601E0002B34D01B689842FAD180B31D4E837B89460446D6F80080B1
:204E2000D3B10023837365B1AC4207D0AB7BDB0704D522468721284600F02AF82D68002DC7
:204E4000F2D1A3683BB14C4505D034600022832104F10C0098473D68A54212D04DB12B68F9
:204E6000A3420AD02BB11A68A24207D01346002BF9D1C6F80080BDE8F8832B4622681A6039
:204E8000F7E72B683B60F4E7440D0020400D002070B586687EB1044602200A4BA0731C60BB
:204EA00004F10C000D46B0470238012804D9832D02D00123A37370BD21462046BDE870405C
:204EC000FFF798BF400D0020002238B50A490B4B0C681A707CB1012501E024685CB1E37B37
:204EE000002BFAD0E581204600228221FFF7D0FF2468002CF3D138BD440D0020500F002006
:204F0000024B1878421C1A70704700BF4E0F002070B50F4D2C68844206D034B1234600E0FA
:204F20001BB11B689842FBD170BD0028FCD003460A46012000211C60064C987326689981FF
:204F4000184681212B60FFF7A3FF266070BD00BF440D0020400D002030B48A250023064AD8
:204F6000064815700649074A074C03700B601360237030BC704700BF4E0F00204F0F00202A
:204F8000440D0020400D00204D0F00202DE9F041224D2B780BB1FFF797FF214E3378BBB190
:204FA0002048214F0278013B02EB4201890001327C1802F01F020270A068DBB233707F5C4B
:204FC000D4F8048040B1812F1DD0827BD2071CD428781844BDE8F081144A14682CB9F7E77E
:204FE000A37BD90709D424689CB12B78002BF7D0FFF76AFFA37BD907F5D5424639462046D4
:20500000FFF746FFEFE70123837342463946FFF73FFF337828781844BDE8F081500F0020EE
:205020004F0F00204D0F0020C00B0020440D0020024A034B10781B78184470474F0F0020D4
:20504000500F002070B40C4D2C78202C11D00B4B0B4E1B78234403F01F0303EB43039B00F6
:2050600001342C70F418C4E90120F154002070BC7047012070BC70474F0F00204D0F00203F
:20508000C00B002018B1837B013B012B00D970470123024AC3731370704700BF500F002048
:2050A000FDF74ABA10B5084C206858B1D0E90131002222609847236823B1BDE8104018680C
:2050C000FDF73CBA10BD00BF480D0020034A04499079D37903EB00230B8070478C0F0020E8
:2050E000360F002010B541600446FDF7EDF9206010BD00BFD0E9003213440360704700BF9A
:2051000010B50446FDF7E0F9D4E90032C3F10103184482422CBF0020012010BD084B82B06E
:2051200002AA42F8043D9A4204D9CD2103F8011B9342FBD10021034802B0FFF7E9BE00BF6F
:205140009F0F00201006002038B5124CFDF70EFB2378114DCD2B08D0AC4202D315E0AC4294
:2051600013D014F8013FCD2BF9D1AC4202D30CE0AC420AD014F8013FCD2BF9D0FDF7F6FAD6
:20518000AC4204D22C1BA0B238BDFDF7EFFA4FF6FF7038BD9F0F00200050002070B5038849
:2051A00004465BB1902B05D11748FFF7B9FD70B9012070BD00232380032070BD4FF4A0612C
:2051C0001148FFF799FD90232380012070BDFFF7BBFF0E4D0E4B0646ED1AABB2984203D97C
:2051E0000C4B1B68002B03DC0748FFF78FFDEAE7094A0A490A4802F049F8AAB231460948DA
:2052000002F044F8F0E700BF4C0D0020005000209F0F00200C0600200891000010910000A7
:20522000F08D00001491000010B5044690F847200346013280F8472080212030054AFFF7BD
:205240004DFC054B2246BDE8104019780020FFF7F9BE00BF295200009B0F00202DE9F041AF
:20526000038804465BB1CB2B04D182290CD00120BDE8F081002323800320BDE8F081CB23D7
:2052800023800120BDE8F081FFF73CF9BFF35F8F0022124B1E681A60BFF35F8F104DFFF7F7
:2052A00039F928680028EAD00127DFF8388003E055F8040F0028E2D090F8453007FA03F382
:2052C0003342F5D0FFF730FC0028F1D02B68424618460221FFF702FCEAE700BF680D0020D4
:2052E0004004002025530000034A1368034303481360FFF7C7BE00BF680D002020060020F1
:2053000010B5044690F84500FDF70EFE10B994F8440010BD01280ABF94F84400002080F0F9
:20532000010010BD70B50446FFF7FEFB00B970BD04F120052846FFF7F7FB06462046FFF743
:20534000DFFF01280ED00028F1D1002EEFD12846FFF7D0FB0D4B22463046BDE87040197845
:20536000FFF770BE002EE2D000262846234684F84760074A7E21FFF7B1FB064B3046224648
:20538000BDE870401978FFF75DBE00BF9A0F0020295200009C0F00202DE9F843FFF7B0FD54
:2053A000224B234C1870FFF7ABFD224B224D1870FFF7A6FD0021214A214B10702268C5E93E
:2053C00001314AB30126DFF884801E4FD8F8003092F8469092F845009B6B9847236849F057
:2053E0008C09494693F84500FDF764FD2268D8F8003092F8450006FA00F23A601B6B98471A
:205400002368A96893F8453054F8042F06FA03F30B43AB60002AD9D10B480021FFF778FD6F
:20542000BDE8F843044800F035B900BF9C0F0020400400209A0F00205C0D00209B0F002058
:20544000E9520000E020024020060020B4010010F8B5048807466C2C0BD07E2C04D0D4B1C8
:2054600000233B800320F8BD852936D11C4E002333601C4D1A4C05E00A282646236811D0E3
:205480007E2B25DD284600F013FA431CF4D16C233B800120F8BDFFF733FD134A104B107054
:2054A0001C60E6E70025114A0F49D5540978013328462360FFF7C6FD0D4B2A461868852155
:2054C000FFF7C0FD0028D2D17E233B800120F8BD06495A1CC8542260D4E70120F8BD00BF69
:2054E000EC0D0020F00D00209D0F00206C0D0020400D002008B505490548802200F0D0F9F1
:20550000BDE8084000210348FFF702BDF80D0020F00D00203006002010B1837A012B01D921
:2055200001207047FFF706B810B1837A012B01D901207047FFF7A0B8FFF768B9FFF77AB9B5
:2055400010B584B08DF80F1018B1827A0446012A02D9012004B010BDFEF7E0FF48B1002307
:205560002046CDE9003301220DF10F01FFF7D4F8F0E70220EEE700BF38B170B5847A82B01E
:20558000012C04D9012002B070BD01207047044616460D46FEF7C2FF40B10023324629467F
:2055A0002046CDE90033FFF7B7F8ECE70220EAE740B170B5857A82B0012D044604D9012074
:2055C00002B070BD0120704716460D46FEF7A6FF40B1002200962B46204601921146FFF76B
:2055E0009BF8EDE70220EBE738B5084D084B2C781B682046DB6B984701206B78A04013B959
:20560000044B186038BD044B186038BD388E0000B4010010A020024090200240C3070AD5EA
:205620000123054A117852788B4012B1034A13607047034A13607047388E0000A020024060
:2056400090200240C3070AD50123054A117852788B4012B1034A13607047034A136070476D
:20566000388E000090200240A020024010B5084C2078FDF759FC63781BB1B0FA80F040096C
:2056800010BDA0F10100B0FA80F0400910BD00BF388E00000146014800F0C0B8780E002058
:2056A00038B50546074800F0B7F848B10446A068284002D0636803B198472468002CF6D162
:2056C00038BD00BF780E0020014800F0A1B800BF780E00202DE9F04104880646772C2FD0B8
:2056E0007E2C26D024B1002303203380BDE8F081FFF706FC2D4F2E4B2E4D3A6818702C6008
:2057000082B12346A0462C4C04F8038093680021802098472B68013357F823202B60002A67
:20572000F2D1DAB2254B1A70772333800120BDE8F0811F4B1B788B421CD00120BDE8F081AF
:20574000DFF878801B4D98F800201D4F00233B602B60002AE8D0184CE256002A18DB2B687F
:2057600098F80020013393422B60F5DB3B68002BECD1D9E70F4D104CDFF84080104F2B6889
:205780003A68E15C013201F07F01E1543A60E7E7064A074952F8232009780020FFF752FCD7
:2057A0000028ECD17E23012033809FE7280400209E0F0020800E0020540F0020510F00203F
:2057C0007C0E002010B40E4B1C78B4B10D4A136898424FF0000304D106E052F8041F884229
:2057E00002D00133A342F8D107490848CA5C62F07F02CA5410BCFFF745BC2346F4E700BF78
:20580000510F002028040020540F00204006002000230360704700BF0068704710B4046888
:205820005CB1A1421CD023680BB906E01346994212D01A681C46002AF8D100230B60026872
:205840000AB906E01A461368002BFBD1116010BC7047016010BC70470B6814B12360ECE767
:205860000B680360E9E700BF10B404685CB18C4211D023680BB906E013468B421A6804D026
:205880001C46002AF8D110BC704734B1226000221A6010BC7047234622680260F7E700BFB8
:2058A0000023013A0160027143718371704700BF10B4817942790479521A224207D00346B2
:2058C0004A1C00682240405C9A7110BC70474FF0FF30FAE7014B1880704700BF380F00205E
:2058E000044A054B12781B7804481344DBB21844704700BF3A0F0020520F0020840E00204F
:20590000014B1888704700BF380F002038B5094D094C1A220021094803F00AFA29462046AC
:2059200000F06CF8294604F10800BDE8384000F065B800BF68910000600F0020700F002097
:20594000002304480449054A03800B801370FFF7DDBF00BF3A0F0020380F0020520F002009
:20596000802928BF802170B500230C4606460849084A094D0B8013702B80FFF7C7FF31462B
:205980002246064803F05EF92C80204670BD00BF3A0F0020520F0020380F0020840E002006
:2059A000024B23F810100120704700BF700F002008B5044B0D3803EBC00000F01FF8012002
:2059C00008BD00BF600F0020024B0D3803EBC000704700BF600F0020054B10B51B689847F8
:2059E000044B5B689847BDE81040034B5B681847208F0000DC910000FC910000082203F08B
:205A000021B900BF002230B51A4B83B01B68ADF8002005460193FFF78FFDB8B904222846A0
:205A20000DEB0201FFF7A8FD98B9022269462846FFF7BEFD04462846FFF780FDBCB99DF858
:205A40000030C22B0BD0204603B030BDFE2003B030BD2846FFF772FDFF2003B030BD9DF863
:205A60000100A0F11400B0FA80F04009EFE7FF2003B030BD70910000052330B583B00546FC
:205A80008DF80430FFF758FD10B1002003B030BD012201A92846FFF76FFD20B10BE09DF893
:205AA0000730DB070DD501220DF107012846FFF77FFD0028F3D02846FFF740FD002003B083
:205AC00030BD2846FFF73AFD012003B030BD00BF10B5184C82B0002818BF04462378FF2B55
:205AE00003D02046FFF718FD10B1002002B010BD2046FFF723FDAB2320468DF80730FFF7A0
:205B00001BFD40B12046FFF77DFF0128EED02046FFF70AFDE9E701220DF107012046FFF705
:205B20002BFD18B12046FFF709FDEBE72046FFF7A3FFF7E75006002070B5174C002818BF67
:205B400004462046FFF798FF40B900252046FFF7EBFC00280CBF2846002070BD0546204648
:205B6000FFF7EAFC06460028EFD1B9212046FFF7E7FC60B92046FFF7E1FC0A262046FFF71E
:205B800041FF731E0028E1D013F0FF06F6D120463546FFF7D3FCD9E75006002010B50446A1
:205BA000FFF796FF00B910BD2046BDE81040FFF7C3BF00BF064B1868C20C830D02F440726B
:205BC00003F01C031343C0F381501843704700BF98130050044B05481B681A0302F47C134C
:205BE00010401843704700BF9813005000F0C0FF1E4B19681E4BC1F3046115292ED91B7896
:205C0000203903F01F03152B02D9203B99422CD04FF0010CF0B4002466466FF00105154A45
:205C200015481460154CCA1AAA42B8BF2A46022AD4BF9B18023303F01F0242F4F852994265
:205C4000076822800660EED10A4B0268C0F800C00268C3F800C00368F0BC70471B7803F09E
:205C60001F03152BD1D89942D2D170478813005006620840980020432C2009406C620840A3
:205C800038B500F04073B3F1807F04462DD0204B1B68C3F30463152B00D9203B6FF00902A1
:205CA00003EB247301339342B8BF1346152BA8BF1523184903F01F03174A43F4F8530B80C3
:205CC0001368164913F002030ABF154A44F0406413606FEAD4636FEA9464124A03F001033B
:205CE00004F001040B60146038BD80234FF6D8050D4A0E4913700D8002F8103CFFF778FFA1
:205D00000B4B1B68C3F30423152BC7D9203BC5E7B81200506E620840000009400000204308
:205D200094042A430800204325620840666208408813005038B5C0F38143012B2CD0022B70
:205D40002ED1524B1B681B0702D44022504B1A604FF400714F4A504B11601B68C0F3815055
:205D6000C3F3C14343F03003012882F8883037D020D3022819D10321042000F057FD47F6D1
:205D80001800464B464C1B68464903F03F03464A23700880136838BD3F4B1B689A034BD59C
:205DA0004FF00042414B1A60CBE70221042000F03DFDE4E70121042043F2BD7500F036FD9E
:205DC000862401213A4A3B483B4B15603B4A046019601368002BFCD00022374B1A60CEE74E
:205DE00000F052FD04460146042000F01FFD042000F04AFDA042FAD10121314B2C4A186807
:205E00002C4C85B22C4B1560C0F307452B4A256019601368002BFCD000212A4B264A1B687A
:205E200011601B684FF06022000E072198474FF480621E4B1A609EE74FF480411B4A224D33
:205E400011602C68C3F3033224F08F04590A224301F080010A431D4C2A602168C3F30322CD
:205E600021F00F010A431A4922600A6803F0800422F0E702224303F06004224303F00604CD
:205E8000224303F0010313430B605AE7B03F005068A00C4080A00C408C1300506C130050E7
:205EA0000BB00C4070B00C402C20094040A00C403C600C4040600C4044600C4084088C438F
:205EC000A83F0050B40100100C6008400B6008400A600840174B82031B68C3F38361C3F3F3
:205EE0008F230DD440F30722002A0CDA5B0805D149080ABF01234FF6FF7319460132F5D11D
:205F000043EA01407047FBD05B0043F00103B3F5803F4FEA410007D340F001010F2986BF95
:205F20004FF6FF730F210123013AEDD143EA0140704700BF5013005030B4124A124B1168B0
:205F40001B68C1F30354DB07C1F303420BD40F4B1D6845F3032345F3033523442A4483F301
:205F6000040482F304021304212843EA04538AB243EA020384BF01F080410B43184630BCBF
:205F8000704700BF78130050B03F0050AC3F005030B5044683B00846FFF79CFF1821024674
:205FA000534800F0DFF9534B53491A681B68C2F387021B0203F4407313430A680093556822
:205FC000002340F2FF322C214948A8474B4B1C211A684748C2F30D0200F0C4F9484B142151
:205FE0001A68434802F0FC3200F0BCF9454B10211A683F4822F07F4222F4403200F0B2F90F
:206000002046FFF799FF0C210246394800F0AAF9212C20D8222111223B4B1F2C19701A7064
:206020004DD8002228213248602500F09BF980244FF47C41354A3648364B1570364A0470B2
:20604000198008212A4800F08DF94FF48002334B1A6003B030BD324C2B4A2368C3F3007392
:206060005B0043F0200313702368C3F3407343F010031370FFF79EFD282102461C4800F0B9
:2060800071F9284B214A1B682149C3F301535B0043F0600313702368C3F3C063DB0063F0BB
:2060A0007F03DBB20B702368C3F345539B0043F47C43A2F89030FFF78DFD0246C1E7FFF72C
:2060C00079FD282102460A4800F04CF980244FF47C41144B0D4D1B680D48C3F301535B0098
:2060E0000C4A43F060032B7004701180E3E700BF00A00C4050130050A40100107C13005058
:20610000741300507013005049A10C404CA10C4041A10C40DCA10C4000803F4040A00C4044
:206120008C13005098130050164A1368002BFCD11549164A0B68126823F00053520723F025
:20614000070319D410B4124A43F00050146840F00400A4070DD043F0005343F007030B603F
:20616000136803F00303032BFAD1074B186010BC7047086010BC704743F0005343F00503B9
:206180000B6070470C00684204400340B03F005000400340012138B50546284B284A196026
:2061A0001368002BFCD0C021264A274B11601B689B070AD4254BA2F57F321B68A2F5D5721D
:2061C000C3F3034343F0F00313700021204A214B11601C682046FFF753FD21462846FFF7B7
:2061E000D7FE40F21D221C4B1B689BB2934212D81A4A13681268C3F30363C2F30342CBB970
:20620000911F012991BF7022023202F00F021201134913430B702046FFF78CFD114B0220E8
:206220001B68DB6898474020012206490E4B08601A6038BD013BDBB2E2E700BF10100940FD
:206240009402224300600C40B03F0050AC3F005040100940B43F005014130050BC120050AC
:2062600002600840A00100109404604238B51D4B00251C68631C08BF002400F0BFFA012354
:2062800019481A491A4A05600B601360FFF74CFF184B1B6823B1184B20461B68FFF77AFFDD
:2062A0000022164B16491A600B68164A23F07F6323F4702343F09C7343F480330B601368FE
:2062C000C3F30133012B08D1136823F0407323F4403343F40031116013600B4A1368002BBD
:2062E000FCD138BD1C130050840460425C600C400822044380012843000120438C21084075
:2063000048200340040009400C00684201280AD018B10122074B1A607047074A136823F07E
:20632000050313607047044A136843F005031360704700BF800104430000094070B50646BC
:2063400000F068FA0546064C2368002BFCD0B0470123236005B170BDBDE8704000F05EBAEE
:2063600000800C40F8B506460D46174600F052FA064C2368002BFCD001237751236000B178
:20638000F8BDBDE8F84000F049BA00BF00800C400849094B094A08681B7812685BB2A2F5D4
:2063A000407203FB02F340F31000A0EB2310803000127047305009400C13005028500940C5
:2063C0008B4B1B689B0706D508208A498A4B8B4A88711A6070472DE9F04F83B00546FFF74F
:2063E000D7FF874B1B681A179F0202F1010240F1918003F04071B1F1807F00F09A8081494F
:206400000C688149C4F304640968152CC1F3044188BF203C152900D920396FF0090622448D
:20642000B242B8BF3246152AA8BF1522774F02F01F0444F4F854764E3C80366816F0030412
:2064400018BF0124760748BF44F002040DB144F00404684E96F90750451B042D24DCB5792D
:20646000A54221D1B2886B491E2A09681346316040F29F80B2F5007F28BF0022C0F0B18051
:206480005B08B3F5007F02F10102F9D262490F3B1B09114341EAC303002157485F4A036087
:2064A000116003B0BDE8F08FB0F10F0504F0040904F0020804F0010E4AD405EB05154FEA7C
:2064C000252BBBF1060F01957ED9DFF85CA14FF4E06B5746DFF854C1DCF800C03F68A7EB06
:2064E0000C075FFA87FCB9F1000F02D0C7F30725AC44B8F1000F02D0C7F30745AC44019D2E
:20650000A5EB0B05BEF1000F57D105FB0CF580352D0A20E0C0F13E01C9100829A8BF08217E
:206520008A42B8BF0A4603F04071B1F1807F7FF466AF3B490C683A49C4F304240968152CEF
:20654000C1F3046188BF203C15297FF666AF63E70025DFF8DCA0DAF800C05FFA8CF7B9F1DD
:20656000000F02D0CCF307294F44B8F1000F02D0CCF307484744BEF1000F01D007EB1C6791
:206580008A1A012AB8BF0122342101FB02F1DAB202FB01F23D44B2FBF5F24FF6FF739A422A
:2065A00028BF1A4600F3070092B2F071B471B28059E71F221B4BB2806EE70CEB176705FBBB
:2065C00007F580352D0AC6E70BF10107DFF860A0BF00A7F1040CD44457444FEA0B2BE2469A
:2065E0007AE7A2F10F030C4A1B0942EAC30353E700000940040F002030100940FDFDA4004C
:20660000B43F0050B81200503C1100506E620840242208400820094000E7A48034100940D1
:206620008813005008E7A480B8130050B41300509C13005038B5154B1D68ACB204B938BD49
:20664000FFF7A6FE124991F90730834205DD6FF07F039842B8BF1846C8718888A04213D837
:206660000C4B0D681B68221A02335B1B1F2B28BF1F234FF6FF755B0822FA03F31C18AC4221
:2066800028BF2C468C8038BD8D8038BD34100940040F002008200940194B1B6813B3194A5D
:2066A000126802F04061B1F1406F1BD016490868800717D415480068800713D410B41448FD
:2066C0000C68006814F0050FC0F3035000F11C004FEA001007D0834202D224F005040C6071
:2066E00010BC704770478342FAD9110158BF44F001045301044B58BF44F004041C60EFE71E
:2067000028500940B43F005000000940B03F0050AC3F00504BF69A12104B1868C0F30F30F8
:20672000904211D04BF6BE1398420BD04BF64133984210D04BF62033984214BF4FF0FF30C1
:2067400002207047012070471B681B0F0B2B0CBF0420002070470320704700BF18130050CB
:2067600008B50A4B1968C1F30331FFF7D3FF012809D1082905D00F290CBF01204FF0FF303B
:2067800008BD002008BD4FF0FF3008BD9412005010B5184B184A1C681168240FC9B2802948
:2067A00028BF0021FFF7B6FF042819D8DFE800F00D07030304009CB90A3148B210BD6CB1C0
:2067C000022C0DD1143148B210BD631E072B07D8DFE803F004060C0606060E090A2010BD1F
:2067E0004FF0FF3010BD163148B210BD142010BD152010BD18130050A010005008B5FFF71F
:2068000089FF012800D0FEE7FFF7C2FF1328FADD08BD00BFEFF3108072B67047EFF3108002
:2068200062B6704701387FF4FDAF704770B50C46C10782B0054609D500231149A2B209689E
:2068400000924E68012219460E48B047AA0709D50B4AA3B2126800935668012302220021B4
:206860000848B0476B0709D5054BA4B21B6800945C680C22022300210248A04702B070BD7C
:20688000A401001000A00C4010B5084B04281B6808BF4FF0C042DC6816BF4FF080521D231E
:2068A0001C2334210248A04710BD00BFA401001000A00C4030B44FF6FF350A4C1202236894
:2068C000C0F3871002F47062090A1D400904024305480A4323F4806329432360216002607E
:2068E00030BC7047148002401880024010B4064A064C1368206811688B42FAD1000C40EA95
:20690000034010BC704700BF082009400C200940102970B50C46054613D90C4E01E0102CAE
